:1000000000308A0019280000223084008313000881
:10001000031918280130F800F701F70B0D28F80B29
:100020000C284A30F700F70B13281628800B0A28F3
:10003000080003081F39830083161F149F141F151F
:100040009F1107309C008313003086008601013029
:10005000831286000230A100FA30A2000420A10B16
:100060002C2883168601831286010230A100FA3003
:0E007000A2000420A10B372883162628630067
:02400E00393F38
:00000001FF
;PIC16F877A
;CRC=F352  CREATED="22-Aðu-21 14:27"
