:1000000000308A0019280000233084008313000880
:10001000031918280130F800F701F70B0D28F80B29
:100020000C284A30F700F70B13281628800B0A28F3
:10003000080003081F39830083161F149F141F151F
:100040009F1107309C008313003086000330880026
:100050008601831286010130A100831608148312E1
:10006000081C4B28A2012208073C031C43288316C6
:1000700086018312210886006430A3000420031047
:10008000A10DA20A33288316860183122108860057
:0A0090006430A30004202B28630055
:02400E00393F38
:00000001FF
;PIC16F877A
;CRC=FB91  CREATED="23-Aðu-21 23:20"
